:1000000045C0000060C000005EC000005CC0000091
:100010005AC00000F9C0000004C1000013C1000074
:1000200052C0000050C000004EC000004CC0000094
:100030004AC0000048C0000046C0000044C00000A4
:1000400042C0000040C000003EC000003CC00000B4
:100050003AC0000038C0000036C0000034C00000C4
:1000600032C0000030C000002EC000002CC00000D4
:100070002AC0000028C0000026C0000024C00000E4
:1000800022C0000020C000001EC0000011241FBEBE
:10009000CFEFD0E1DEBFCDBF11E0A0E0B1E0EAE6F6
:1000A000F2E000E00BBF02C007900D92AA30B1074A
:1000B000D9F721E0AAE0B1E001C01D92AC30B2074F
:1000C000E1F786D0D0C09CCF83B18F7883B98AB74F
:1000D0008A628ABF89B7806789BF08952FEFFC01C4
:1000E000208311820895DC01FB01E050FF4F9081D5
:1000F000909511969C930895FC01618308958091D9
:100100000B0181112DC080910A01823089F083306A
:10011000D9F0813009F042C088B38D7F88BB88B3A5
:100120008D6088BB6FE370E084E390E0E5DF36C06C
:1001300088B38B7F88BB88B38B6088BB61E770E036
:1001400084E390E0D9DF2AC088B3877F88BB88B377
:10015000876088BB61E770E084E390E0CDDF1EC07C
:1001600080910A01823019F0833069F017C088B39A
:100170008B7F88BB88B38B6088BB6FE370E084E3C0
:1001800090E0BADF0BC088B3877F88BB88B38760F5
:1001900088BB67E370E084E390E0AEDF80910A0102
:1001A00090E0019683709078992324F401978C6FE6
:1001B0009F6F019680930A01089587B3806187BB82
:1001C00083B7886683BF83B7866083BF11BE0895F7
:1001D0008AE390E083DF84E390E080DF87B38F6081
:1001E00087BBEBDF84E070DF11BE789460910B0178
:1001F00070E08AE390E077DF8FE39CE90197F1F705
:1002000000C000007CDFF2CF1F920F920FB60F925A
:10021000112410920B0111BE0F900FBE0F901F9072
:1002200018951F920F920FB60F9211248F9381E0B1
:1002300080930B018FE781BF8F910F900FBE0F90BE
:100240001F9018951F920F920FB60F9211248F9343
:1002500082E080930B018FEF81BF8F910F900FBED3
:0A0260000F901F901895F894FFCF3F
:0A026A003F065B4F666D7D277F673E
:00000001FF
